:100000000C9462000C948A000C948A000C948A0070
:100010000C948A000C948A000C948A000C948A0038
:100020000C948A000C948A000C948A000C948A0424
:100030000C948A000C948A000C948A000C948A0018
:100040000C9440040C948A000C940E040C94E80365
:100050000C948A000C948A000C948A000C948A00F8
:100060000C948A000C948A000000000023002600F3
:10007000290000000000240027002A0000000000E2
:10008000250028002B0004040404040404040202D4
:100090000202020203030303030301020408102007
:1000A0004080010204081020010204081020000012
:1000B0000008000201000003040700000000000027
:1000C0000000900511241FBECFEFD8E0DEBFCDBFEA
:1000D00011E0A0E0B1E0EAE5F3E102C005900D9285
:1000E000A231B107D9F721E0A2E1B1E001C01D9230
:1000F000A23EB207E1F710E0C2E6D0E004C02197CB
:10010000FE010E94A009C136D107C9F70E94EE0581
:100110000C94AB090C940000CF92DF92EF92FF9207
:10012000DC01A03282E0B8070CF03EC0B7FD06C08B
:10013000A53BB1052CF0A4EBB0E002C0A0E0B0E01C
:100140008091E00128E830E06901C81AD10887FDF4
:10015000D394CC0CDD1CCC0CDD1C0D2C000CEE085B
:10016000FF088091E10128E532E0281B310987FD75
:100170003395220F331F220F331FA901330F660B54
:10018000770B9A01AB012C193D094E095F090E94BA
:10019000010824EB30E040E050E00E94D707C20E97
:1001A000D31EE41EF51ED6019091DF019C3098F518
:1001B0008091E00148E850E0481B510987FD5395C4
:1001C000440F551F440F551FA417B5078CF080919D
:1001D000E10128E532E0281B310987FD3395220F24
:1001E000331F220F331FAD012A173B070CF4A9015F
:1001F00042505109440F551F2FB7F894892F90E0B2
:10020000FC01EE0FFF1F8E0F9F1FFC01E654FE4FF7
:10021000528341832FBFFF90EF90DF90CF900895DE
:10022000CF92DF92EF92FF920F931F93CF93DF93C2
:100230006C017A018B01C0E0D0E0CE15DF0589F0BA
:10024000D8016D918D01D601ED91FC910190F08165
:10025000E02DC6010995892B11F47E0102C021967B
:10026000ECCFC701DF91CF911F910F91FF90EF90DD
:10027000DF90CF900895089580E090E00895FC010C
:10028000538D448D252F30E0842F90E0821B930BFB
:10029000541710F0CF96089501970895FC01918DA1
:1002A000828D981761F0828DDF01A80FB11D5D96D8
:1002B0008C91928D9F5F9F73928F90E008958FEF46
:1002C0009FEF0895FC01918D828D981731F0828DFA
:1002D000E80FF11D858D90E008958FEF9FEF089551
:1002E000FC01918D228D892F90E0805C9F4F821BB5
:1002F00091098F73992708958DE191E00E94700113
:1003000021E0892B09F420E0822F0895FC01848DDF
:10031000DF01A80FB11DA35ABF4F2C91848D90E02F
:1003200001968F739927848FA689B7892C93A0890A
:10033000B1898C9180648C93938D848D981306C0C1
:100340000288F389E02D80818F7D80830895EF926C
:10035000FF920F931F93CF93DF93EC0181E0888F7F
:100360009B8D8C8D981305C0E889F989808185FD66
:1003700024C0F62E0B8D10E00F5F1F4F0F73112757
:10038000E02E8C8DE8120CC00FB607FCFACFE8897E
:10039000F989808185FFF5CFCE010E948601F1CFDA
:1003A0008B8DFE01E80FF11DE35AFF4FF0820B8F9A
:1003B000EA89FB898081806207C0EE89FF896083BA
:1003C000E889F98980818064808381E090E0DF9111
:1003D000CF911F910F91FF90EF900895CF93DF93EE
:1003E000EC01888D8823C9F0EA89FB89808185FD2D
:1003F00005C0A889B9898C9186FD0FC00FB607FC8E
:10040000F5CF808185FFF2CFA889B9898C9185FFCE
:10041000EDCFCE010E948601E7CFDF91CF91089505
:1004200080E090E0892B29F00E947C0181110C94DE
:100430000000089590E0FC01E255FF4F3491FC016B
:10044000E656FF4F2491FC01EA57FF4FE491EE235B
:1004500009F43BC0332339F1333091F038F43130B3
:10046000A9F0323001F584B58F7D12C0373091F09C
:100470003830A1F03430B9F4809180008F7D03C012
:10048000809180008F77809380000DC084B58F7736
:1004900084BD09C08091B0008F7703C08091B00007
:1004A0008F7D8093B000F0E0EE0FFF1FE458FF4F08
:1004B000A591B4918FB7F894EC91611103C0209588
:1004C0002E2301C02E2B2C938FBF0895CF93DF9343
:1004D00090E0FC01E656FF4F2491FC01EA57FF4FE4
:1004E0008491882361F190E0880F991FFC01EE58F8
:1004F000FF4FC591D491FC01E458FF4FA591B491F1
:10050000611109C09FB7F894888120958223888360
:10051000EC912E230BC0623061F49FB7F8943881C0
:10052000822F809583238883EC912E2B2C939FBF61
:1005300006C08FB7F894E8812E2B28838FBFDF91F8
:10054000CF9108951F93CF93DF93182FEB0161E0B4
:100550000E946602209711F460E004C0CF3FD105ED
:1005600039F461E0812FDF91CF911F910C941A0231
:10057000E12FF0E0E255FF4FE491E330F9F048F469
:10058000E130B9F0E230A1F584B5806284BDC8BD28
:1005900034C0E730E9F0E83019F1E43049F58091F2
:1005A0008000806280938000D0938B00C0938A008B
:1005B00024C084B5806884BDC7BD1FC08091800001
:1005C000806880938000D0938900C093880015C014
:1005D0008091B00080688093B000C093B3000DC0DC
:1005E0008091B00080628093B000C093B40005C0D9
:1005F000C038D1050CF0B5CFAFCFDF91CF911F91AF
:1006000008953FB7F8948091180190911901A09135
:100610001A01B0911B0126B5A89B05C02F3F19F008
:100620000196A11DB11D3FBFBA2FA92F982F882772
:10063000820F911DA11DB11DBC01CD0142E0660FCD
:10064000771F881F991F4A95D1F708958F929F921F
:10065000AF92BF92CF92DF92EF92FF920E9401037E
:100660004B015C018FE0C82ED12CE12CF12C0E94B3
:100670000103DC01CB0188199909AA09BB09883E4D
:100680009340A105B10558F021E0C21AD108E10854
:10069000F10888EE880E83E0981EA11CB11CC114DD
:1006A000D104E104F10419F7FF90EF90DF90CF90AF
:1006B000BF90AF909F908F900895CF93DF93EC0100
:1006C00060E086E00E941A02C130D10519F463E3AC
:1006D00070E015C0C230D10519F466E670E00FC0B5
:1006E000C330D10541F469E970E088E00E94A202BC
:1006F0006CEC70E004C0259739F46FEF70E088E08F
:10070000DF91CF910C94A202DF91CF91089560E028
:100710008CE00E941A0260E08DE00C941A020E94A4
:10072000A609CF92DF92EF92FF920F931F9361E0A1
:100730008FE00E941A0283E290E00197F1F760E0F7
:100740008FE00E941A02E8EAF0E06491E4E9F0E048
:10075000E491F0E0EE0FFF1FE859FF4F859194916F
:1007600000E412E42FE030E0462F0E944B056115B3
:1007700071058105910549F0DC01CB010196A11DB0
:10078000B11DBC01CD019F7003C060E070E0CB01E2
:100790000E9475086B017C0120E030E0A9010E94F5
:1007A0003A08882361F028E23EE74CE85CE3C701A1
:1007B000B6010E94FF080E943F08CB0102C084EFEF
:1007C00091E01F910F91FF90EF90DF90CF900895EF
:1007D0001F920F920FB60F9211242F933F934F93B6
:1007E0005F936F937F938F939F93AF93BF93EF9399
:1007F000FF938DE191E00E948601FF91EF91BF91FF
:10080000AF919F918F917F916F915F914F913F91A8
:100810002F910F900FBE0F901F9018951F920F925F
:100820000FB60F9211242F938F939F93EF93FF9303
:10083000E0912D01F0912E018081E0913301F09142
:10084000340182FD12C09081809136018F5F8F73D9
:1008500020913701821751F0E0913601F0E0E35E1C
:10086000FE4F958F8093360101C08081FF91EF91FB
:100870009F918F912F910F900FBE0F901F90189501
:100880001F920F920FB60F9211242F933F938F93C5
:100890009F93AF93BF938091140190911501A09104
:1008A0001601B09117013091130123E0230F2D376A
:1008B00020F40196A11DB11D05C026E8230F029664
:1008C000A11DB11D20931301809314019093150174
:1008D000A0931601B093170180911801909119010E
:1008E000A0911A01B0911B010196A11DB11D809329
:1008F000180190931901A0931A01B0931B01BF91A5
:10090000AF919F918F913F912F910F900FBE0F90BC
:100910001F9018951F920F920FB60F9211242F93CC
:100920003F934F935F936F937F938F939F93AF9377
:10093000BF93EF93FF938091120187FF05C0109240
:100940008500109284001BC020911201022E000C21
:10095000330B8091DE0190E02817390784F48091F1
:100960001201082E000C990BFC01EE0FFF1F8E0FD9
:100970009F1FFC01E654FE4F808186FD15C08091CB
:1009800012018F5F8093120120911201022E000C40
:10099000330B8091DE0190E028173907C4F4809171
:1009A00012018C3064F113C080911201082E000CEA
:1009B000990BFC01EE0FFF1F8E0F9F1FFC01E654E9
:1009C000FE4F808160E08F730E941A02D8CF809121
:1009D000840090918500049680349C4918F480E44A
:1009E0009CE905C0809184009091850004969093C5
:1009F0008900809388008FEF809312013BC0209183
:100A000084003091850080911201082E000C990B12
:100A1000FC01EE0FFF1F8E0F9F1FFC01E654FE4FDF
:100A200081819281820F931F909389008093880027
:100A300080911201082E000C990BFC01EE0FFF1F94
:100A40008E0F9F1FFC01E654FE4F808186FF12C06F
:100A500080911201082E000C990BFC01EE0FFF1F74
:100A60008E0F9F1FFC01E654FE4F808161E08F7363
:100A70000E941A02FF91EF91BF91AF919F918F91C8
:100A80007F916F915F914F913F912F910F900FBE8A
:100A90000F901F901895CF92DF92EF92FF920F93D5
:100AA0001F93E82FF92F05C00150110921093109C1
:100AB00061F1908196239417B9F305C00150110993
:100AC0002109310911F1908196239413F7CFC12C9C
:100AD000D12CE12CF12C0AC08FEFC81AD80AE80AF1
:100AE000F80A0C151D052E053F0579F08081862337
:100AF000841791F36C2D7D2D8E2D9F2D1F910F91BD
:100B0000FF90EF90DF90CF90089560E070E080E07C
:100B100090E01F910F91FF90EF90DF90CF9008959C
:100B20001092200110921F0188EE93E0A0E0B0E047
:100B30008093210190932201A0932301B09324017B
:100B400084E091E090931E0180931D0185EC90E07C
:100B500090932A018093290184EC90E090932C01DA
:100B600080932B0180EC90E090932E0180932D01D7
:100B700081EC90E09093300180932F0182EC90E023
:100B8000909332018093310186EC90E09093340190
:100B90008093330110923601109237011092380180
:100BA000109239018091DE018C30A0F491E0980F11
:100BB0009093DE018093DF0190E0FC01EE0FFF1FB8
:100BC0008E0F9F1FFC01E654FE4F88EB9BE0928343
:100BD000818308958FEF8093DF010895789484B521
:100BE000826084BD84B5816084BD85B5826085BD29
:100BF00085B5816085BD80916E00816080936E00B7
:100C000010928100809181008260809381008091A8
:100C10008100816080938100809180008160809359
:100C200080008091B10084608093B1008091B00019
:100C300081608093B00080917A00846080937A0014
:100C400080917A00826080937A0080917A0081603E
:100C500080937A0080917A00806880937A00109265
:100C6000C100E0912D01F0912E0182E08083E0919E
:100C70002901F0912A011082E0912B01F0912C01C1
:100C80008FEC808310923501E0913101F0913201B7
:100C900086E08083E0912F01F091300180818061B6
:100CA0008083E0912F01F091300180818860808302
:100CB000E0912F01F0913001808180688083E09184
:100CC0002F01F091300180818F7D808361E08FE082
:100CD0000E94660260E08EE00E94660260E08FE0A3
:100CE0000E941A0261E086E00E94660261E088E0EC
:100CF0000E94660261E08CE00E94660261E08DE085
:100D00000E9466028091DF018C3008F051C061E0E2
:100D100080E10E9466028091DF01E82FF0E09F01F0
:100D2000220F331FE20FF31FE654FE4F9081907C99
:100D3000906190831092E0011092E1016CE00E94BA
:100D400094092CE0829FB001112440E050E09A0108
:100D5000260F371FF901EE0FFF1F2E0F3F1FF9015E
:100D6000E654FE4F908196FD16C04F5F5F4F4C30AA
:100D7000510569F781110FC01092800082E08093C5
:100D800081001092850010928400B19A80916F00CA
:100D9000826080936F00E091DF01F0E0CF01880F67
:100DA000991FE80FF91FE654FE4F8081806480830D
:100DB0008AE590E00E948C008DE191E00E94700134
:100DC000892B09F4B7C08DE191E00E944E01809318
:100DD0001C01813609F0AEC0C1E0D0E00E94910351
:100DE000883C91052CF582E090E00E945D030AE5C5
:100DF00010E0C8010E948C000E949103813991404B
:100E00000CF4A5C08AE590E00E948C00073811051B
:100E10000CF093C060E08CE00E941A0260E870E081
:100E20008DE00E94A2020E948703CE010E945D0312
:100E30008DE191E00E947001892B81F28DE191E0BA
:100E40000E944E0180931C01863621F4CE010E943F
:100E50005D03C4CF823629F560E088E00E941A0263
:100E6000C130D10519F463E370E005C0C230D1058B
:100E700031F466E670E086E00E94A202AFCFC33094
:100E8000D10541F469E970E086E00E94A2026CECB1
:100E900070E0F1CFC530D10509F0A0CF6FEF70E061
:100EA000EACF8C3639F460E08DE00E941A0260E8E7
:100EB00070E008C08C3441F460E08DE00E941A02BA
:100EC00061EE70E08CE0D8CF823739F460E08CE0DE
:100ED0000E941A0260E870E008C0823541F460E0C8
:100EE0008CE00E941A0261EE70E08DE0C5CF833580
:100EF00019F40E94870372CF833749F460E086E0DB
:100F00000E941A0260E088E00E941A0267CF8634CD
:100F100031F4C530D1050CF061CF21965FCF82341A
:100F200031F4C130D10509F459CF219757CF81361B
:100F300009F054CF0E9410023FCF0738110539F055
:100F400060E08CE00E941A0261EE70E069CF0E94BE
:100F500026030B5F1F4F043B110509F04ACF8AE5BA
:100F600090E00E948C000AE510E0C8010E948C000D
:100F70000E94910381399140A4F08AE590E00E949B
:100F80008C0060E08DE00E3211052CF00E941A02F8
:100F900060E870E004C00E941A0261EE70E08CE02C
:100FA00040CF0E9426030A501109F9F63ECF052EC4
:100FB00097FB1EF400940E94EE0757FD07D00E9495
:100FC000090807FC03D04EF40C94EE0750954095A9
:100FD000309521953F4F4F4F5F4F089590958095E5
:100FE000709561957F4F8F4F9F4F08950E942B08FA
:100FF000A59F900DB49F900DA49F800D911D11246D
:101000000895B7FF0C94F6070E94F607821B930B16
:101010000895A1E21A2EAA1BBB1BFD010DC0AA1F39
:10102000BB1FEE1FFF1FA217B307E407F50720F051
:10103000A21BB30BE40BF50B661F771F881F991FCC
:101040001A9469F760957095809590959B01AC0115
:10105000BD01CF010895A29FB001B39FC001A39F1E
:10106000700D811D1124911DB29F700D811D1124E1
:10107000911D08950E94B20808F481E008950E942D
:1010800046086894B1110C94F90808950E94DE088E
:1010900088F09F5798F0B92F9927B751B0F0E1F039
:1010A000660F771F881F991F1AF0BA95C9F714C0E9
:1010B000B13091F00E94F808B1E008950C94F8085E
:1010C000672F782F8827B85F39F0B93FCCF3869522
:1010D00077956795B395D9F73EF49095809570957F
:1010E00061957F4F8F4F9F4F0895E89409C097FBFC
:1010F0003EF490958095709561957F4F8F4F9F4FEF
:101100009923A9F0F92F96E9BB279395F695879532
:1011100077956795B795F111F8CFFAF4BB0F11F4F5
:1011200060FF1BC06F5F7F4F8F4F9F4F16C088239C
:1011300011F096E911C0772321F09EE8872F762FD2
:1011400005C0662371F096E8862F70E060E02AF013
:101150009A95660F771F881FDAF7880F96958795FF
:1011600097F90895990F0008550FAA0BE0E8FEEFD4
:1011700016161706E807F907C0F012161306E4075B
:10118000F50798F0621B730B840B950B39F40A2654
:1011900061F0232B242B252B21F408950A2609F432
:1011A000A140A6958FEF811D811D089557FD905890
:1011B000440F551F59F05F3F71F04795880F97FB1B
:1011C000991F61F09F3F79F08795089512161306D5
:1011D0001406551FF2CF4695F1DF08C01616170604
:1011E0001806991FF1CF8695710561050894089539
:1011F000E894BB2766277727CB0197F908950E94CB
:1012000012090C9483090E94750938F00E947C0928
:1012100020F0952311F00C946C090C9472091124A0
:101220000C94F9080E94D60870F3959FC1F3950FAE
:1012300050E0551F629FF001729FBB27F00DB11D5A
:10124000639FAA27F00DB11DAA1F649F6627B00DEA
:10125000A11D661F829F2227B00DA11D621F739FD3
:10126000B00DA11D621F839FA00D611D221F749FE1
:101270003327A00D611D231F849F600D211D822F28
:10128000762F6A2F11249F5750409AF0F1F088234F
:101290004AF0EE0FFF1FBB1F661F771F881F91507C
:1012A0005040A9F79E3F510580F00C946C090C94B6
:1012B000F9085F3FE4F3983ED4F3869577956795F8
:1012C000B795F795E7959F5FC1F7FE2B880F911DA6
:1012D0009695879597F9089597F99F6780E870E04C
:1012E00060E008959FEF80EC089500240A9416169C
:1012F000170618060906089500240A941216130604
:10130000140605060895092E0394000C11F4882391
:1013100052F0BB0F40F4BF2B11F460FF04C06F5FAD
:101320007F4F8F4F9F4F0895991B79E004C0991FFD
:10133000961708F0961B881F7A95C9F7809508952F
:10134000EE0FFF1F0590F491E02D099481E090E0ED
:0A135000F8940C94AB09F894FFCF59
:10135A0000000000A70110013F01EE0170014E01DB
:02136A0062011E
:107E0000112484B714BE81FFF0D085E080938100F7
:107E100082E08093C00088E18093C10086E0809377
:107E2000C20080E18093C4008EE0C9D0259A86E02C
:107E300020E33CEF91E0309385002093840096BBD3
:107E4000B09BFECF1D9AA8958150A9F7CC24DD24C4
:107E500088248394B5E0AB2EA1E19A2EF3E0BF2EE7
:107E6000A2D0813461F49FD0082FAFD0023811F036
:107E7000013811F484E001C083E08DD089C08234E0
:107E800011F484E103C0853419F485E0A6D080C0E4
:107E9000853579F488D0E82EFF2485D0082F10E0AE
:107EA000102F00270E291F29000F111F8ED06801E7
:107EB0006FC0863521F484E090D080E0DECF843638
:107EC00009F040C070D06FD0082F6DD080E0C81688
:107ED00080E7D80618F4F601B7BEE895C0E0D1E017
:107EE00062D089930C17E1F7F0E0CF16F0E7DF06D8
:107EF00018F0F601B7BEE89568D007B600FCFDCFD4
:107F0000A601A0E0B1E02C9130E011968C91119780
:107F100090E0982F8827822B932B1296FA010C0160
:107F200087BEE89511244E5F5F4FF1E0A038BF0790
:107F300051F7F601A7BEE89507B600FCFDCF97BE46
:107F4000E89526C08437B1F42ED02DD0F82E2BD052
:107F50003CD0F601EF2C8F010F5F1F4F84911BD097
:107F6000EA94F801C1F70894C11CD11CFA94CF0C13
:107F7000D11C0EC0853739F428D08EE10CD085E9AC
:107F80000AD08FE07ACF813511F488E018D01DD067
:107F900080E101D065CF982F8091C00085FFFCCF94
:107FA0009093C60008958091C00087FFFCCF809118
:107FB000C00084FD01C0A8958091C6000895E0E648
:107FC000F0E098E1908380830895EDDF803219F02E
:107FD00088E0F5DFFFCF84E1DECF1F93182FE3DFCA
:107FE0001150E9F7F2DF1F91089580E0E8DFEE27F6
:047FF000FF270994CA
:027FFE00040479
:0400000300007E007B
:00000001FF
